:040000008A11112828
:10000800FE00030EF6000408F7000A08F800831241
:1000180003137F08F9008A118A2A8A111328FA0122
:10002800FB01FC0183132030840059308A11DF2240
:100038008A11BA30FD000230FE003430FF00A030D3
:1000480084008A11B4228A118A11E7228A11E800F1
:100058008A11E822E90083018A11A82900308A0060
:100068000408840A8207003405341F340234043437
:1000780002341F3405341F340834043408341F3460
:1000880004340E34113415340C3404340C34113463
:100098000F34013404341F3404340A341134043462
:1000A8001F34023404341F3404340E3411341E3423
:1000B800103403341E3405341E3403341F3415340D
:1000C8000A3403340E341134113403341F34113418
:1000D8000E3403341F341534113403341F340534FB
:1000E800013403341F3404341F34033411341F34EF
:1000F800113403341F341034103403340E341134E3
:100108000E3403341F340534023403341F340534E9
:100118001A340334173415341D34033401341F34AE
:10012800013403341F3410341F3403340F341034B3
:100138000F3403341B3404341B34033403341C34A9
:1001480003340334193415341334013417340134A7
:10015800103401340034453456344534523459345B
:100168005434483449344E344734203449345334B1
:10017800203441345734453453344F344D344534A6
:1001880021342134203420342034203420342034C5
:100198002034453456344534523459345434483470
:1001A80049344E34473420344934533420344334AA
:1001B8004F344F344C3420345734483445344E345B
:1001C800203459344F345534523445342034503463
:1001D80041345234543420344F344634203441347A
:1001E80020345434453441344D34213421342134BD
:1001F80000348312031329082D07DB005B08DE0097
:100208005E0884008A1132208A118A11E2218A113B
:1002180083120313DB005B08DF00E001E101DD016D
:100228002C08E101E1072B08E001E0071430DB00AE
:100238005B08E200E21B9729E11B3C295E08840069
:100248008A1132208A110038031D38296208143AAD
:10025800031D3029AE01AE0A62086907DB005B089E
:10026800840083138001912961086004031D4429D7
:1002780062086907DB005B088400831380018B290F
:100288005F0884008A1132208A11DB00DC016108D2
:100298005C06031D512960085B06031D7C29600864
:1002A8005F0784008A1132208A11DB00620869071F
:1002B800DC005C0884005B0883138000E001E10136
:1002C8000130DB005B08DE075E0884008A113220FB
:1002D8008A118A11E2218A1183120313DB005B0859
:1002E800DF006208143A031D9129DD01DD0A912916
:1002F80060085F0784008A1132208A11DB006208D7
:100308006907DC005C0884005B0883138000013007
:10031800E0070318E10A0030E107FF30DB005B0863
:10032800E207E21F20295D080319A529DD01013034
:10033800A9070318AA0A0030AA07FF30AB00FF304C
:10034800AC008A11D022080083120313E601E701EA
:100358008A1177228A1183120313A001A1010830A0
:10036800E5006508A2001130E5006508A300143017
:10037800E5006508A4001130E5006508A50008300F
:10038800E5006508A600A701A80178308A11C022F7
:100398008A118A114E228A1183120313E601E7019A
:1003A800233067022830031966020318CD2901306B
:1003B800E6070318E70A0030E707D4298312031376
:1003C800D9005908203A031DEB297630080059084E
:1003D8002E3A031DF129743008005908213A031DEB
:1003E800F729723008005908BF3EA03E84008313E5
:1003F8000008080083120313DA0164305A02031854
:10040800112A01308700023087000130D9005908CD
:10041800DA0764305A02031C052A053087000630C3
:1004280087008316031307150800F30073080319E0
:100438002F2A00308A119D228A110130831203135A
:1004480087007C086807F20072088400831300089C
:100458008A119D22080002308312031387000800C6
:1004680026342A342E34323436343A340D343E3479
:10047800423412341734463401341C344A344E346E
:100488002134523456345A345E3462340734663474
:100498006A346E34013083120313AB070318AC0AB5
:1004A8000030AC072E080319602AAE01A901AA0181
:1004B800ED30AB00FF30AC008A11FD2008000130A0
:1004C800F4007408FA077A082A3A0319FA017A0834
:1004D800F4000310740CF5007508FC007A08013963
:1004E8008A11192208007030831603138F048501BE
:1004F800860187018A11FE21831603138112811157
:10050800F83081050B118B168B1708000B1D902AEC
:100518000B118A1163228A11790883120313FF00D1
:1005280078088A0077088400760E8300FE0E7E0E17
:100538000900F10071090739831203138500710955
:10054800F00001300310F00DFF3E031DA62A031032
:10055800700D6039860008007E088A007F088200D6
:10056800B0228A118000840A04087D060319003429
:10057800FF0A0319FE0AB42A83120313E40064086D
:10058800E3006308AD00A901AA01EC30AB00FF301D
:10059800AC008A11FD200800831203136808D900F3
:1005A8005908DA006908D9005908E8005A08D9003A
:1005B8005908E900080064008001840A0406031948
:0A05C80000340406E02A2F34443406
:02400E00F5F3C8
:00000001FF
