:04000000803114280F
:100008007E14803120007F08F100911223009E1C8D
:100018000F2819089A0071082000FF007E100900B7
:100028008031162880315B208031F0003E3084001A
:100038008030850020308600003087001330803102
:1000480051207E1020008031572823000C128B1776
:100058000B1722001D159D1723001E159F150C3028
:100068009B009D179E161D1620009112210011124B
:10007800911608006F346E34653420347434773444
:100088006F34203474346834723465346534203401
:1000980066346F34753472340034FE0012001E006A
:1000A800FE0B522800348031292080315A2812341E
:020000040001F9
:04000E00E4EFFFFE1E
:00000001FF
