:020000001C28BA
:100008007E14803120007F08F10023001908F000D9
:1000180073080F39203E860087017008810001307F
:10002800F0007008F30771082000FF007E10090037
:100038001D28F301F40120308400003085001030C1
:1000480064207E10200028284920740873060319AC
:100058003E2822000C1523009E1C432874080F39E3
:10006800203E8600870101089A000130F2007208DC
:10007800F407432823009E1C432822000C11230068
:100088009D1C29281D121D162928210098010C11D4
:1000980023000C110C128B170B1722001D159D172E
:1000A80023001E159E179F150C309B009D179E164A
:1000B8001D1620001112911221001112911608002C
:0C00C800640080010131890B65280034C0
:020000040001F9
:04000E00E4FFFFFE0E
:00000001FF
