:0400000080314A28D9
:100008007E14803120007F08F500911C242879088F
:1000180084007A08850000082C0098000130F90750
:100028000030FA3D200061087A02031D1D2860088F
:100038007902031C2228933131238031200091104A
:10004800121D2B289331F023803120001211921CAD
:1000580046280130F6070030F73D7708803AF4006B
:100068006308803A7402031D3B2862087602031C69
:100078004428F601F7010130F40074082000DF007D
:10008800200092107508FF007E10090080314C286E
:10009800F0308400253085000030FE000230FF007B
:1000A80093315D238031F601F701F8015330840064
:1000B800003085000D30FE000030FF0093315D23D5
:1000C8008031933127238031F900933128238031FF
:1000D800FA00933129238031FB003B3084009330B0
:1000E800850060308600003087000030FF000A304D
:1000F800933151237E10200096313D2E2000A70019
:100108002708860087010108A500270A86008701BD
:10011800250881002408A5002708860087012508EE
:100128008100270A860087012708840085010008C6
:100138000106A5002708023E8600870125088100E0
:10014800270886008701270A840085010008010521
:10015800A5002708033E8600870125088100A6011F
:10016800A60106302602031808002708033E860069
:1001780087010130A500260AC228A535890BC128A8
:10018800250801050319D5282635043E2707A500AB
:100198002508860087010130810741310318810A4B
:1001A800DF282635043E2707A50025088600870195
:1001B8000030C03FC13F0130A5002508A607B5287B
:1001C8002000A300A401A4012008240203180800A9
:1001D8000A30A10024082307A2002208860087010C
:1001E800210881000130A1002108A407E828210086
:1001F80091142C0099170800C034F934A434B03491
:10020800993492348234F83480349034FF3475341D
:100218007534763475347434743474347434743492
:100228007434733473347434743474347434733489
:100238007334733474347434743474347534753476
:10024800763477347734783477347634773478344E
:100258007934783478347734773478347934793435
:100268007934783478347934793479347934793420
:100278007A347A347A347A347A347A347A347A3406
:100288007A347A347A347A347B347B347B347C34F1
:100298007C347C347B347B347B347B347B347A34DD
:1002A8007A347A347A347A347A347A3479347934D8
:1002B80078347834793479347934783478347834D3
:1002C80077347834783477347734773476347634CE
:1002D80076347734773475347534753476347634C7
:1002E80076347534753476347734773476347534B7
:1002F80075347634763476347634763475347534A9
:1003080076347634753474347334733474347434A2
:1003180073347234713471347334733473347334A2
:100328007334733474347434753474347434743486
:10033800733474347334733474347334733474347A
:100348007434743473347334743474347434743467
:100358007434753476347634763476347734793444
:10036800763476347734763479347934783477342B
:1003780077347A347A3479347A34783479347A340C
:100388007B347B347A347A347A347A347B347C34F0
:100398007B347A347A347A347A347B347C347C34DF
:1003A8007C347C347B347C347D347C347B347A34C8
:1003B8007B347B347C347B347A347B347B347B34BD
:1003C8007C347B347A347A347B347C347C347C34AB
:1003D8007C347B347A347C347D347C347B347B3499
:1003E8007B347C347D347B347A347B347C347C3489
:1003F8007B347A3479347A347C347C347B347A3480
:100408007A347A347B347B347A3479347A347B3472
:100418007C347B347A3479347A347B347A347A3461
:1004280079347A347B347B347B347B347B347A3450
:1004380079347A347A3479347A347B347C347D3440
:100448007C347B347A347A347B347A347B347C342D
:100458007D347D347E347E347D347D347E34803406
:1004680081348034803480348134823483348134DC
:1004780081348134833483348434843483348334BE
:1004880084348534843483348434833483348534A5
:10049800853483348234813482348334853485349A
:1004A80083348134803480348034813480347F34A0
:1004B800803481348234833481347E347C347D3496
:1004C8007E347F347F347E347E347F34813481348B
:1004D80080347C347B347C34803483348534863473
:1004E80087348B34903495349734973497349734D1
:1004F800983498349934983494349434963498349D
:100508009C349C34993492348C34873482348034CB
:100518007D347B34793479347C347C347C3477345E
:1005280070346A34663465346534663466346634E7
:1005380065346534653466346534633463346234F1
:10054800633466346A346E34703475347B3483347F
:100558008E3498349F34A234A334A634A734A734F5
:10056800A834AB34B034B934C534CC34CC34C83402
:10057800C134B734A9349934853476347034793435
:100588008734933499349A3495348D34833476345B
:100598006634593455345934633471347E3486346E
:1005A8008A348B3486347E347434693461345D34EF
:1005B80061346934713479347E347D3476347234FC
:1005C8006D346734663468346C34713479347D340E
:1005D8007C3480348134833487348F349B34A5341D
:1005E800AF34AF34AD34B234BD34C834C934C83490
:1005F800C834C834CE34CA34AE347C345634553456
:100608006D348E34A434A7349C3498349E34993491
:100618008534663449343A34443460347634823428
:1006280087348C3490348D34863471345A34493458
:100638004834553468347934803481347F347B3499
:10064800743469345E345434553461346F347B34D3
:100658007E347B34763477347F34833484348734FF
:100668009334A334AF34B334AC34A734B034C03487
:10067800CB34D034CE34C634C634CA34C934AB349F
:100688006D344C344D346A349134AA34AB349C34D0
:1006980099349E3498348334633443343334453442
:1006A800673480348B348F34933491349034873466
:1006B800713457344B344F345E34743486348A344E
:1006C80083347D347A3473346C3465345D345A340D
:1006D800633472347D347D34773470346E347734D7
:1006E80085348A3490349B34A034A734AF34AF3483
:1006F800AA34AD34BC34C534CC34D034D334D23439
:10070800D234D034C33490345634483451347234EB
:100718009734AE34AD34A234A734A334913476344C
:100728005634393432344E346E3484348F349734FA
:1007380097348F348A347C34653451344E3453348E
:1007480061347934863487348334803477346C3434
:1007580066345D3459345E346C3479347B3479349E
:100768007534703474347E348234853492349E34D3
:10077800A934B234B034AC34B234BD34C234C33426
:10078800C534CD34D634DE34E034D734B7346B34A2
:10079800463445345A347F34A134B134A934AB34A7
:1007A800B234A4348B34693444342934353457345E
:1007B8007534883494349A34953495348D3473343C
:1007C80057344734473451346A347D348634873457
:1007D80085347E3473346C34613455345434613424
:1007E8006F3479347C3477346F346D3477348234B1
:1007F800883490349D34A334A934B234B134AC3441
:10080800B034BA34BE34C634D434D834DD34E334E6
:10081800E034C934763440342E343D346A349B3461
:10082800B734B034AE34B134A5349134713445346E
:100838001B341F3440346534853498349F349634DF
:100848009234883472345634403438343F345C340B
:10085800793487348934823477346A3463345E3443
:1008680054344F34563461346F34783476346834C1
:1008780060346734743481348D3496349B34A534B1
:10088800B034B034AA34AE34B634B534BC34C5341C
:10089800CF34D834E234E734E134CB3471343834EB
:1008A8002334343462349734BA34B434B234B3347D
:1008B800A9349634723445341434163434345D34DF
:1008C80083349934A134943492348834723456344D
:1008D8003F343234363454346E34803484347D3486
:1008E8007334673465345C3450344C344D34593483
:1008F80068346F347034663467346E3478348334D3
:1009080087348E349634A534AE34AE34AB34B13437
:10091800B734BB34C234C634CC34D434E034DE34D7
:10092800E234C534663436341D342B345A349C349E
:10093800B934B534BC34B234A434963479343F3441
:10094800173418342834533484349F34A1349F34F2
:100958009634833472345B343C342D343434483424
:1009680064347F3483347B347434663461345E3465
:1009780056344D344B3452345A3466346B346634FE
:1009880067346B3471347B34873488348B349334D4
:100998009734A534A934AA34B034B434B834C13443
:1009A800C934CF34DA34D834DB34CD3479344834EC
:1009B8001D34193442348534A334B334BD34AD34D2
:1009C800A634A034843452342E3411340E343334E3
:1009D800603480349D34A13494348E348134653449
:1009E8004F343B3425342F3447345F3476348434E1
:1009F8007B3471346D3464345D3457344A34413453
:100A0800493450345D346B34713474347A347B3403
:100A18007C348134823488348D3495349F34A834BE
:100A2800B034BB34C134C034C434C934CE34D43403
:100A3800D434D63498345C34323418342E34673491
:100A48008F349F34B134A7349E34A3349B34793423
:100A580056343034123419343834573479348F34A6
:100A6800903492348F34823471345E343D342A3475
:100A78002A3436344C3465347034723474347234F5
:100A88006F346B3460344D3443343B343F344F342B
:100A98005F346D347A3481348134843484348034DE
:100AA80082348834893491349934A734B634C034C4
:100AB800C434C734C934CB34D034CF34D534AB3450
:100AC8007A34523432343634563477348534963462
:100AD800933490349834A3349D348C3470344A342D
:100AE8003334313439344C3462346A3470347834C1
:100AF8007F34833486347834673456344934433405
:100B08004A344E34503458345E3465346E34773455
:100B180071346D3462345634523455345A34633433
:100B28006E347034743477347C3480348B3490343D
:100B380094349A349F34A534B034B734BA34BC34BE
:100B4800BF34C434CA34D034D434B6349234703454
:100B5800583454346634723478347D347C347C347C
:100B6800873497349B349734883471345D345534E2
:100B7800513455345C345A3457345B3460346734F8
:100B880073347634743470346A346434643463345B
:100B98005D3458345434503453345E3463346834D8
:100BA80068346534633468346C34713472346D3449
:100BB800693468346C34733480348A3491349934A9
:100BC800A134A934B334B934BC34BD34C334C734C4
:100BD800CC34D034D534C334A234823468345C3451
:100BE80063346E3472347634763474347C348F34AF
:100BF8009A349C34963484347034673461345F3466
:100C080061345C345334503453345A346934733453
:100C18007534733471346E346F346F3468345E34C1
:100C28005634513452345B34623465346534643438
:100C3800643469346E347134733470346B346B34A7
:100C48006D3471347A34823488348E3496349C34DA
:100C5800A534AE34B434B734BA34BD34C334CD3427
:100C6800D334D934C634A53484346D34603468340C
:100C780070346E346C346A346A3476348D349A3411
:100C88009E349634883476346D34683464346034F1
:100C980056344B3447344C34563463346C346E34E5
:100CA8006C346C346C34703473346E3464345B3448
:100CB800543454345C346234643462345F345F34A2
:100CC80065346E347434763473346D346A346F3406
:100CD80075347E348234843486348C349534A0342C
:100CE800A934B134B434B834BE34C734D134D83468
:100CF800DB34DD34C334A4348834733468346F345B
:100D080070346D346C346D34723485349B34A4344F
:100D1800A4349B348B347C34773471346C3466342B
:100D28005B3450344F34563460346B34713470341F
:100D38006D346E34703476347934743468345F3496
:100D4800583458345F346334623460346034613406
:100D5800693471347534743472346F346F34753463
:100D68007B347F3481347F347F3483348D349A34B8
:100D7800A334A834A834AB34B234BD34CA34D7341D
:100D8800DB34DC34DB34BE34A2348734713464346D
:100D980068346834643467346D34753487349D340A
:100DA800A434A3349E348F3482347B3474346A344C
:100DB800623458344F3451345A3463346D34723495
:100DC80072347134753479347C347D3475346A34D2
:100DD80062345D345D34633467346734673469344E
:100DE8006D3475347D3480347F347C347734763494
:100DF8007A347E3481348434833485348B34943427
:100E0800A234AD34B334B734BC34C134C934D53466
:100E1800E034E634EC34E834BE349C347E34663452
:100E280061346D346D3469346E34753482349E3473
:100E3800B634B934B234A5348D347E347A3472344D
:100E480067345F3453344B345334633470347B34F5
:100E580080347A3478347D34813480347E3472340A
:100E680063345D345B345F3467346B3469346A34BB
:100E78006D3473347C3483348134793474346F340E
:100E88006F3476347E347D347F3480347F348934D3
:100E98009834A234AB34B134B134B334BE34C8342A
:100EA800D234DE34ED34EF34F334DE34A1347A3422
:100EB800573443344A3467346B3474348A3499343D
:100EC800B034CE34DA34BF34A43483345D344E3491
:100ED8004E34473442344D3454346A348E34A93451
:100EE800AE34A4348D346D345D3457344F344834C3
:100EF8004734453452346E3483348F348F348234DB
:100F08006F34693467346334623460345D34613417
:100F180070347B3481348534843481348334883428
:100F280086348B348C349334A134A934B334BA3432
:100F3800C234CB34D934E534F034FF34F734F634E2
:100F4800BB3466343E3422343034593488348E34D9
:100F5800A034BC34CD34E634EC34C9347E344D345A
:100F680029341C3434344D3459346A348934A33424
:100F7800C334D734C0349234603432341D3424340A
:100F880033343D34513468348134A134B134A3341A
:100F980083345F343F3434343B344834533462341C
:100FA8007034813494349E3491347B3468345E34A4
:100FB80060346834713477347C348D349F34B13480
:100FC800C434BF34B834B634C134CF34DD34EA3431
:100FD800F134EB34EB34B5345F343F3423342F34FD
:100FE800613493349E34B034CF34D634E334E034AF
:100FF800AF346534373420341C34403463347234AD
:101008008A34A834BB34C934CC34A33469343A3470
:101018001A3413342A3449345A347034893498349D
:10102800A734A9348D3464344534303431344534EC
:101038005C3467346F347E34893494349434803427
:101048006534563455345C346D34793470347C34BA
:1010580089348D34AA34AB34AA34AC34B434B234C1
:10106800B934CB34CA34D634EB34EC34F034D43419
:1010780072343C34243428344E348A349E349E34BA
:10108800BA34D034D634DD34BC34723433342034FA
:101098001B3433345F346F3478349134B034BC3417
:1010A800C234AB346F343934193410341E343F34FD
:1010B800543463347A348E3498349A3488346234AD
:1010C8003F3430342E343B34533460346734753411
:1010D80081348634853479346134503453345F3400
:1010E8006C347A347A3480348D349434A434AB3408
:1010F800A934A734AE34B334BE34D334DB34E0344B
:10110800ED34F134F034DC347B343C341C341934A1
:1011180045348334A634A834BC34D134D234DF34D3
:10112800C334803438341B34143426345A3473347A
:1011380082349634B034BE34C234B6347A343D3452
:101148001634073414343634573465347C349134C7
:101158009C34A03490346A343E34293426343434F0
:101168004D3461346B3473348134853484347D3444
:10117800673454344C34543460346D347C3484349F
:1011880089348C34963498349B34A434A734AC34E2
:10119800B534C634CF34D634E834EE34F434F834C5
:1011A800E93484343B34233410343B347F34A5345D
:1011B800A534B634D334CE34DF34CF348B343F3413
:1011C8001834103418344D3472347A348F34A634C9
:1011D800B934BC34BB348E344E3421340534053430
:1011E800203449345F3472348C3495349B349434CD
:1011F80079344E342C34233423343A345734653418
:101208006F347A3481348234833474345C345134A6
:1012180051345C346C347F348434833490348B346C
:101228009334A534A234A334A734B234B534CB34C0
:10123800E134DF34ED34F934F334EB34A0344C3496
:1012480022340E342F3466349B34AC34B134C83471
:10125800CF34D934D234A3345C341F340D340D3434
:1012680030345E3476348A349A34B234B934BA3489
:10127800A2346A3430340A340134113436345934DF
:101288006A347A34883492349134863469344034F8
:101298002934213427343D34543463346C347A345B
:1012A8007E347B3479346C345D34553458345F344F
:1012B8006D348134813489348D348C349E34A63431
:1012C800AE34B434B634BD34C734D834E134E7343A
:1012D800EE34E634DC3492344B342D34173436345F
:1012E80068349734A634AB34C534C634CE34CD34E0
:1012F800A03463342C34183412342E345D347434EE
:1013080088349A34AC34B334B634AA347B34463493
:1013180020340B34113430345534673479348834FC
:101328008F348F348B347634523437342834243421
:101338003834523463346B347334733476347D34D4
:101348007F34753465345C3457345E347C348C3483
:101358008B34973498348D349D34AF34B334B934E6
:10136800C334C334BE34D034E134E534EF34ED341F
:10137800E034943456343F3421343D346D34903461
:101388009C34A334C034BD34C734D234A934733444
:10139800413428341834293457346B347D34933429
:1013A800A134A934B034B1348B34593435341334BE
:1013B8000D342134413458346B34803485348A34C4
:1013C800903485346B344D343434213428344134EA
:1013D80056346A34783479347B34803484347F34B6
:1013E80078346E34653463346D347E3482349334A7
:1013F8009D349C34B034BA34C334C934CF34D53472
:10140800CF34D634D934DA34DB34DC34BD347234F6
:1014180054343934393461348A34A634A634AF3478
:10142800B934B034C234BB3498346A3444342C34BC
:101438002334403466347A348E3498349D349C3462
:10144800A334A03484346534443425341E342D3414
:101458004A34613475347E347B347B3480347D3453
:1014680070345B34433430343134403456346A3465
:101478007434763477347B348034833481347834EC
:101488006F346A3470347C348E349E34A034A4347F
:10149800A734AE34BD34CD34D934D534D234D03475
:1014A800CF34D934E034E234C93486345D343C3442
:1014B800373459348234A134A934A934AC34A23431
:1014C800B134B834A53484345B34393424342F34FB
:1014D80052346C348634933492348E348F34953449
:1014E8008B3477345F343C342A342B343D345534D0
:1014F8006A347834783475347934783475346C34A3
:101508005B3449343C343E344A345C3470347B3484
:101518007D347B34783478347B3482348634833435
:101528008234813489349434A334B734BA34BD3422
:10153800C034C034C834D234DF34E234E034E13467
:10154800D334CD34BB348D34743457345034603490
:1015580076349634A334AD34B434A834AC34A634D9
:101568009B3488346C34583441343D344C345D34C5
:1015780076348734913492348D348E3484347B3489
:1015880070345C344E34423442344734513460341D
:1015980067346E347434733470346B3466345D3449
:1015A800563452344F344F3455345E3468347034C2
:1015B80078347D3480348634883489348C34883463
:1015C8008B3490349134A034AB34B734C234C8343B
:1015D800D034CF34D434DA34DB34DF34D834D134B3
:1015E800B03483346B344E344F3464347C349434A4
:1015F8009B34A434A1349834A334A0349A348D3461
:1016080075345C3442343E34473454346F34803457
:101618008A348B348934883481347E3479346A341A
:101628005F345234493445344B3457345F346B3467
:10163800723470346F346A346734643460345F34BD
:10164800593459345A345C3464346C3476347E34C6
:101658008434873488348A348E3491349534983479
:101668009A349D34A534B234BD34CC34D434D8340F
:10167800DB34DA34DB34D734D334CB34A7348A348C
:101688006E3459345E346A34833495349F34A734C5
:101698009D349934983491348E3484347734653455
:1016A800543450344F3459346B3479348534873456
:1016B80087348134783474346D34683464345C34F9
:1016C80056344F344F345334593465346A346C3497
:1016D8006A34643460345B345A345A345B345F346B
:1016E8005F34613464346834703477347F348334DD
:1016F800863488348B348F3495349C34A234AA349D
:10170800AF34B234B834B834BC34BE34C134C8345D
:10171800CA34CB34C834C134B5349E348A347B34AB
:1017280075347C3483348A348D34883485348034F9
:1017380081348434843483347B34713466345A3449
:10174800563456345C3467347034763478347834AC
:1017580078347534743471346B3465345E34593488
:10176800563457345B345D346334653466346634D8
:10177800623460345D345B345D345D3461346634C6
:1017880069346D34703475347B34813489348F34E2
:1017980094349A349E34A234A734AB34B034B4347D
:1017A800B734B934BA34BA34B934BB34BC34BE34BF
:1017B800BF34BB34AD349C348B347F347B347C34BD
:1017C800823488348B348C348834853481347D3445
:1017D8007B347B347934773473346F346B346834C6
:1017E80068346A346E3470347234733470346E34DE
:1017F8006C3468346534623460345E345D345C342F
:101808005A345934583458345934593459345A3468
:101818005A345B345D34623466346A346F347234FB
:1018280076347B34813488348F3495349D34A434B1
:10183800AB34B134B534B934BA34BA34BB34BE3449
:10184800C234C434C434C434C034BA34AF349D341C
:101858008B347C347434723476347F3486348C34EC
:101868008E348B34863481347B34753473347234DB
:1018780070346F3471346F346F347034723473343D
:10188800763479347834773474346D346934653423
:101898006234603460345F345C34593457345534BE
:1018A80054345534573458345A345A345C345F34C9
:1018B800633469346E34733478347E3484348934D0
:1018C8008F3495349A349F34A734AD34B034B2345D
:1018D800B334B334B434B734B734B834B834B634B2
:1018E800B334B234AF34A8349E3493348B3489344F
:1018F8008634843484348334823480347C34793438
:1019080077347534723470346F346E346E347034A6
:101918007034703470346E346E346E346E346E34A9
:101928006D346A34673466346534653464346534D8
:101938006434633460345E345D345C345B345C340A
:101948005D345F346134643467346C3470347634B5
:101958007A347E34833489348E3494349A349F3480
:10196800A334A834AE34B334B434AC349E34953490
:1019780091348D348934873488348C349534A03448
:10198800A734A834A434A0349A34963492348B34CF
:101998008834863485348334833483348434863479
:1019A8008734853484348334823483348234803475
:1019B8007D347A347834743471346E346B346734EB
:1019C8006334613461345F345F345F345E345C3473
:1019D8005A345A3459345934593458345934593496
:1019E8005A345C345E34623466346A346E34723429
:1019F80077347A347E348134853488348C34913425
:101A080096349A349C349E34A034A334A734AA3430
:101A1800AB34AC34AC34AB34AA34A934A734A434D2
:101A2800A234A0349E349A349734943490348D344C
:101A380089348634833480347C347A347B347A3401
:101A4800773476347634763476347634753475343F
:101A5800753474347334733472347134713470344B
:101A68006F346C346A346934683467346534633489
:101A7800613460345E345E345C345A345A345B34D6
:101A88005B345D345E346134643467346A346E3494
:101A98007234743478347C348134853489348D34A8
:101AA80090349234953499349C34A034A134A234BF
:101AB800A434A334A334A334A434A334A434A33463
:101AC800A234A234A0349F349E349D349A3498347E
:101AD8009634933492348F348C348B3489348734ED
:101AE80086348434813480347F347E347D347C344D
:101AF8007A34783476347334713471346F346C34A6
:101B08006B346A34683467346534643462346134FD
:101B1800603460345F345E345E345D345E345F3428
:101B28006034603460346334653467346A346C34E8
:101B38007034723476347A347E348134853489341E
:101B48008C348F3491349434963497349A3499344D
:101B580099349B349A349B349D349C349B349C3404
:101B68009B349A349A349834973496349334933413
:101B780091348F348E348E348D348D348D348A3450
:101B8800893489348734853482347E347B347A349A
:101B98007634733471346E346C346B346734653432
:101BA80063345F345E345D345B34593458345834AC
:101BB80059345A345A345A345B345B345C345E34A6
:101BC8005F34613462346434673469346B346E343E
:101BD8006F346F3471347334753479347A347C34B7
:101BE8007E34813482348334833485348634863435
:101BF800883487348734883489348A348A348934F9
:101C0800893489348A348A348B348A348A348A34DD
:101C18008A348A348A348A348B348A3489348934CD
:101C280089348934883487348634853483348134DC
:101C380080347D347B347934783476347434723437
:101C480070346E346D346C346A3469346834673493
:101C580067346634663466346534653466346634AD
:101C68006734683469346A346B346C346E34713474
:101C7800723474347534753478347A347C347E3400
:101C88008034823484348534873488348934893480
:101C98008A348B348D348E348D348E348F348E3434
:101CA8008F348F348F348E348E348E348E348D341A
:101CB8008B348B348B348A348B348B348A34893428
:101CC8008A348B348B348C348B348B348C348B3413
:101CD8008A3489348834873487348534833481342A
:101CE800803480347E347C347A3479347734763472
:101CF80074347334723472347034703470347034B1
:101D080070347034703470347134723472347334A3
:101D1800743475347734783479347B347C347D3456
:101D28007F348034813482348334843485348534F8
:101D380085348534863487348734873486348634CA
:101D480086348634873487348734873487348634B6
:101D580086348734873487348834873487348634A4
:101D6800863487348634863485348534853485349E
:101D7800853485348534853484348334833482349B
:101D8800813481347F347E347D347D347C347B34BB
:101D98007B347A34793479347834783478347834D4
:101DA8007734783477347734793479347A347A34C8
:101DB8007B347B347B347C347D347D347E347E3498
:101DC8007F347F347F348034803481348334823468
:101DD800833483348334843484348434843484343E
:101DE8008534853485348534843484348434843427
:101DF8008534853484348534853484348434843417
:101E080084348534853485348634863486348634FF
:101E180085348534863486348634863485348534EE
:101E280084348434843483348234823483348234F2
:101E3800823482348134813480347F347F347F34F7
:101E480080347F34803480348034813481348134E8
:101E580082348234833483348434853486348634BB
:101E6800873487348834883488348834893489348A
:101E780089348A348B348B3489348934893489346D
:101E88008B348B348B348B348B348B348B348B3452
:101E98008B348B348B348B348C348B348C348C343F
:101EA8008C348C348D348D348C348C348C348C3428
:101EB8008D348D348E348D348D348C348C348B3415
:101EC8008B348C348C348C348B348A348A348A3412
:101ED8008834883487348634863486348634863425
:101EE800863486348634863485348534853485341E
:101EF800863486348534863486348634853484340E
:101F0800843484348534843483348334843483340B
:101F180083348334833483348434833484348434FE
:101F280084348434843483348334833484348534EB
:101F380085348534863486348534863485348634CD
:101F480086348634863486348634873486348634B8
:101F580086348534853486348634863486348634AB
:101F68008634873487348634863486348634853498
:101F78008534853485348434843485348434853494
:101F8800853484348534863487348734873486347A
:101F98008734873487348734863486348634873464
:101FA8008734883488348734873487348634863451
:101FB800863486348734873488348834883488343F
:101FC800873487348834883488348834883489342A
:101FD80089348A34893489348A348A348A348A340C
:101FE8008A348A348A348A348A348A3489348934FB
:101FF8008A348A34893489348934893488348734F2
:1020080087348734873487348634863485348534F6
:1020180085348534843483348234833483348234FD
:10202800823481348234813480347F3480347F3404
:102038007F347F347E347E347E347E347D347D3408
:102048007D347D347D347D347D347D347D347D3400
:102058007D347D347C347C347C347D347D347D34F3
:102068007D347D347D347E347E347D347E347E34DC
:102078007F347F347F347E347F347F347F348034C0
:102088007F348034803480348034803480348034A9
:102098008034803480347F347F347F347F347F349D
:1020A8007F347F347F347F347F347F347E347D3493
:1020B8007D347D347C347C347D347D347D347D3492
:1020C8007D347C347B347B347A347A347A347A3491
:1020D8007A347A347A3479347A3479347734773490
:1020E8007634763477347734773477347734773492
:1020F8007734773476347634773477347734773482
:102108007834793479347934793478347834783463
:1021180077347834793479347A347A347A347B344D
:102128007B347B347B347B347B347B347C347C342D
:102138007B347B347B347B347B347B347B347B341F
:102148007B347B347B347B347B347B347B347B340F
:102158007A347B347A347A347A347A347A34793407
:102168007A34793478347834783478347834783404
:1021780078347834773478347834773477347734FB
:1021880077347734773478347834783478347834EA
:1021980078347834793479347934793479347934D1
:1021A8007A347A347A347B347B347B347B347B34B2
:1021B8007B347B347B347B347B347C347B347C349D
:1021C8007C347C347D347D347D347D347D347E3480
:1021D8007E347D347D347D347D347D347D347D346E
:1021E8007D347D347D347D347D347D347C347C3461
:0C21F8007C347B347B347B347B347B34C0
:102648002800171108000B34813401340B30F900CD
:102658008130FA008031FB20080021009110200011
:1026680091102C00980199132200101108000134D0
:102678009134F43400340A340A340A340A340A34FB
:102688000A342800950120002108E301E307200807
:10269800E201E207280017150800FE0012001E00DC
:1026A8000130FE020030FF3B7F087E04031900342E
:1026B800522B6400800101310130FE020030FF3BE3
:1026C8007F087E04031900345E2B20001C0887391C
:1026D80018389C00FC309C05FA309B0091102100B2
:1026E800911408007830280097041708FC3902383C
:1026F8009700FF30960020009210210092140800E5
:10270800873028009E051E08FC3902389E00FF30DD
:102718009D00200012112100121508000E303D0006
:10272800B200210010157F302C009800CF30250012
:102738009E05220010112100101108002000B2008F
:102748003008B1003108A6006430A7000030A800A6
:102758002830A9000030AA00320895316125080008
:102768002000A401A501201CBD2B2208A4072308D2
:10277800A53D0130A235A30D890BBE2B0130A13632
:10278800A00C890BC32B21082004031DB72B250897
:10279800A101A1072408A001A00708002000A101A9
:1027A800A201A101A2012208803AA00080302002E3
:1027B800031DE02B0630210203180800FF3020001B
:1027C800A0002108533E86008701200881000130BF
:1027D800A1070030A23DD72BF0017B0895311C25BD
:1027E80093310130F3007308FB0707307B02031CA9
:1027F800012C0130F3007308FB007B08FF3E533EB9
:1028080086008701010820008F00F001F00A7B088C
:1028180095311C2508002000A200A301A301063061
:1028280023020318080023082207A00020088600B6
:1028380087010108003E840081300318013E8500AD
:102848000008A1002308533E860087012108810063
:102858000130A0002008A307132C2100190887398C
:1028680070389900F0308D0003308E008F01101100
:1028780023008C018D018E0110119331D2239431E4
:102888009331692394319331922394319331762390
:102898009431933184230B178B1720001C152800C3
:1028A8001E1508002000A3002008FF3EA1002108F3
:1028B800A2002308023E860087010130A100220AF7
:1028C800662CA135890B652C2108010503197C2C80
:1028D800230A860087010130A100220A742CA13541
:1028E800890B732C21080105031D7C2C013008007D
:1028F800003008002000210820040319A62CA50197
:10290800A50AA11B912C0130A035A10D890B882C9B
:102918000130A4002408A507852C21082302031DE3
:10292800972C20082202031C9D2C2008A2022108B3
:10293800A33B0130A136A00C890B9E2C0130A502C7
:10294800031D912C2308A101A1072208A001A007BB
:1029580008002000A400A501A301A5012008250264
:1029680003180800A308031DBC2CA508031DDA2CB6
:10297800A3010130A10025082407A200220886002F
:1029880087012108810725082407A100210886005E
:1029980087010A300102031CDA2C25082407A1004C
:1029A8002108860087018101A301A30A0130A10043
:1029B8002108A507B22C2000A30122008E150E11B4
:1029C8000D302000A000A00BE72C20000E080139D4
:1029D800A0000130A035890BEE2C0E0C0139A100A6
:1029E8000230A135FF3E031DF52C21352004A2003D
:1029F8002208A30022008E110E150D302000A00021
:102A0800A00B042D20000E080139A0000E0C01397E
:102A1800A1000130A135FF3E031D0E2D21352004F4
:102A2800A2002208A30422000E1120002308080097
:102A3800F2000130F1007108F0064C2D70082200F8
:102A4800031D0D1403190D10080070082200031D42
:102A58008D1403198D10080070082200031D0D1530
:102A680003190D11080070082200031D8D150319A4
:102A78008D11080070082200031D0D1603190D1290
:102A8800080070082200031D8D1603198D12080016
:102A98007208013A0319222D033A0319292D013A24
:102AA8000319302D073A0319372D013A03193E2D22
:102AB800033A0319452D602D08002000AF002608B1
:102AC800FF3EAB002B08AE002F08033E86008701AF
:102AD8000130AB002E0A712DAB35890B702D2B08F8
:102AE80001050319A52D2E35043E2F07AB002B0831
:102AF80086008701403FAC00413FAD0028082D0209
:102B0800031D882D27082C02031CA52D2A08A101C6
:102B1800A1072908A001A0072E35043E2F07AB0006
:102B28002B0886008701403FA200413FA300943153
:102B38007E249531200021082004031DA52D013095
:102B48000800003008002000B000AF010130AD00DF
:102B58000030AE00AB01AC01AF0126082F0203180C
:102B6800E92D2F083007A8002808860087010108EA
:102B7800A900AA012908A0002A08A1002E08A3017B
:102B8800A3072D08A201A2079331B4239531200091
:102B98002008AB072108AC3D0A30A0000030A10096
:102BA8002E08A301A3072D08A201A2079331B4237D
:102BB800953120002108AE01AE072008AD01AD0710
:102BC8000130A8002808AF07B12D2C08A701A707D6
:102BD8002B08A601A60708002000A500A601A4014D
:102BE800A301A601200826020318282EA408031D05
:102BF800002EA608031D232EA40126082507A100E0
:102C08002108860087018108031D1B2E0930A100B9
:102C180026082507A20022088600870121088100CE
:102C2800A401A40A0130A1002108A307232E260825
:102C38002507A100210886008701013081020130A3
:102C4800A1002108A607F62D23082006031D080069
:102C5800A601200826020318080026082507A10057
:102C680021088600870181010130A1002108A607FB
:102C78002D2E9431312496312000C201593086001E
:102C8800003087003C308400003085000630BA00F0
:102C980016001A00BA0B4C2E2000C2013430BB00BB
:102CA800F130BA00BA0B562EBB0B562E00329431B7
:102CB800DF2496312000BA003A08A400433080315E
:102CC8008220963103302000BA003A08A000433031
:102CD800943156249631003A03197B2E3C3020005B
:102CE800BA003A08B10043309631C926963120001F
:102CF800A001A00A43309431562496310038031DB0
:102D08008F2E2000B001B00A43309331A2239631B0
:102D1800003A03199B2E03302000BA003A08A0009D
:102D28003C309431AD2496312000C201C20A0230F1
:102D38002000BA003A08A000433094315624963156
:102D48000038031DB32E02302000BA003A08B00044
:102D580043309331A2239631003A0319BF2E033032
:102D68002000BA003A08A0003C309531F025963191
:102D78002000C201C20A200042080319502E3C302C
:102D880094310F2496312000502E2000B800B50150
:102D9800B601B701B70AB9010530B2003208B90067
:102DA800B9080319FD2E3908B200310886008701D9
:102DB800320881003908B2003108023E86008701D6
:102DC80032088100310894310F24963129302000CF
:102DD800B4009630B300A630B200B20BF12EB30B9C
:102DE800F12EB40BF12E01302000B902B908031DF1
:102DF800D72E31088600870181013108023E8600FE
:102E0800870181013108033E860087018101810A1B
:102E1800310894310F2496317A302000A000003018
:102E2800A1009331452396312000B7080319080003
:102E380020005F0803192B2FDF010230B20032088F
:102E4800A0003108023E9531F025963120009431DA
:102E5800DF2496312000B2003208A40038088031FF
:102E6800822096312000A001A00A38089431562407
:102E78009631003A03194A2F93312A2396312000BC
:102E8800A001A00A31089431AD2496310230200007
:102E9800B2003208A0003808943156249631003A1E
:102EA80003195E2F2000A001A00A3108013E9431C9
:102EB800AD2496312000310894310F249631023028
:102EC8002000B2003208A6003108023E9531A7253D
:102ED8009631200027082604031DF62FB7019331E9
:102EE8002423963102302000B2003208A0003108B5
:102EF800023E8031E42096312000A601A60A31085E
:102F0800013E9531A725963120002608B2002708F2
:102F1800B300A601A60A31089531A72596312000ED
:102F280027083302031D9A2F260832020318A12FFF
:102F3800A001A00A3108013EC02F2000A601A60A60
:102F480031089531A725963120002608B2002708B8
:102F5800B300A601A60A3108013E9531A72596318E
:102F6800200027083302031DBB2F2608320203184E
:102F7800C32FA001A00A31088031E4209631200037
:102F8800B901053039020318F62F310894310F249E
:102F9800963115302000B4004B30B300D130B20068
:102FA800B20BD42FB30BD42FB40BD42F0000643042
:102FB80094310F24963115302000B4004B30B30003
:102FC800D130B200B20BE62FB30BE62FB40BE62FCD
:102FD800000001302000B2003208B907053039027C
:102FE800031CC92F3430B300F130B200B20BFA2FF2
:082FF800B30BFA2F0032182F71
:020000040001F9
:04000E00E4EFFFFF1D
:00000001FF
