:08000000803102288731FD2F39
:100D9A0021008E013F308D008C1223000C1222009C
:100DAA008E018D018C0108003F302000980518083B
:100DBA00CF392038980099171917FC30990508007F
:100DCA00F201F20AF201F20A0B3072020318080069
:100DDA0072088731132786310130F1007108F20752
:100DEA00E92EF400F501F50A0B307402031C012FF9
:100DFA000A30F3007308F4008631E5268631F501DE
:100E0A00F50A75087402031C08007508873159270A
:100E1A0086310130F3007308F507062FF0007003DE
:100E2A00031D1A2F22000E10080002307006031D3F
:100E3A00212F22008E10080003307006031D282F70
:100E4A0022000E11080004307006031D2F2F220005
:100E5A008E11080005307006031D362F22000E126F
:100E6A00080006307006031D3D2F22008E1208006E
:100E7A0007307006031D442F22000E1308000830A5
:100E8A007006031D4B2F22008E13080009307006CE
:100E9A00031D522F22008D1308000A307006031D0D
:100EAA00080022000D130800F0007003031D602FD4
:100EBA0022000E14080002307006031D672F22005C
:100ECA008E14080003307006031D6E2F22000E15C3
:100EDA00080004307006031D752F22008E150800C5
:100EEA0005307006031D7C2F22000E1608000630FE
:100EFA007006031D832F22008E1608000730700625
:100F0A00031D8A2F22000E17080008307006031DE1
:100F1A00912F22008E17080009307006031D982FA2
:100F2A0022008D1708000A307006031D08002200EF
:100F3A000D170800F901FA01F8018631CD2687312B
:100F4A008631D926873120001814AD2FF901FA010C
:100F5A0020009701960122008C160430890BB32FCA
:100F6A0022008C121130F6003A30890BBA2FF60B98
:100F7A00BA2F003220001708FA001608F9000030CC
:100F8A007A02203003197902031CAB2F7908E03E5C
:100F9A00F900FF307A3DFA00FB01FB0A0B307B02B5
:100FAA000318F42F7B08F600F7010530F635F70D24
:100FBA00890BDB2F7A087702031DE52F7908760261
:100FCA00031CEC2F7B08F6007608F800F42F01309A
:100FDA00F6007608FB070B307B02031CD72F8631FD
:100FEA00E526873178088631F6268731F801AD2F54
:060FFA00200087319F2F4B
:020000040001F9
:06000E00FC3FFF3F9F3F95
:00000001FF
