:040000008A11112828
:10000800FE00030EF1000408F2000A08F300831250
:1000180003137F08F4008A1166298A111328F8014E
:10002800F90183132030840052308A11C0228A11CA
:100038008A11CB228A11E1008A11C8228A11F5009F
:100048008A11C9228A11F6008A11CA22F70083018F
:100058008A112E2883120313DE01DF018A118622FA
:100068008A118A11AF228A118A116F228A118A1184
:10007800B4218A1183120313DD005D08E0006008D3
:100088008A110D218A1183120313270803197B286B
:10009800A40140308A11B1208A1183120313DD00B4
:1000A8005D08A4043A308A11B1208A11831203131F
:1000B800DD005D08A40434308A11B1208A1183124E
:1000C8000313DD005D08A4042E308A11B1208A11C3
:1000D80083120313DD005D08A40428308A11B120BF
:1000E8008A1183120313DD005D08A404A701051813
:1000F8008428AB08031D842828308A113A228A11E3
:100108008312031385188F28B108031D8F282E30FA
:100118008A113A228A118312031305199A28B708FB
:10012800031D9A2834308A113A228A118312031344
:10013800051AA528BD08031DA5283A308A113A22B8
:100148008A1183120313851A4728C308031D4728F9
:1001580040308A113A228A11472883120313DC009F
:10016800DB015C08033E840083130008013A031D89
:1001780003295C08043E8400000884000008D900B4
:100188005908D2005C0A8400FF308007013000075C
:100198008A11F5218A110038031DD628831203130A
:1001A800DB01DB0A831203135C0A84008313000853
:1001B800D9005C08043E8400000A84000008DA00C4
:1001C80059085A02031C03295C08043E84000008ED
:1001D800023E84008008031DF6285C08033E840064
:1001E800800103295C08043E84000008023E840064
:1001F8000008D9005C08043E8400590880005B08A8
:10020800D9005908D2005C08840000088A119C2291
:10021800080083120313DA001030D7005708D20001
:100228004030D8005808D3005A08D9005908D400DB
:1002380040308A111A228A11083083120313D7001A
:100248005708D2004030D8005808D3005A08D900BF
:100258005908D4003A308A111A228A1104308312BC
:100268000313D7005708D2004030D8005808D300ED
:100278005A08D9005908D40034308A111A228A1130
:10028800023083120313D7005708D2004030D80039
:100298005808D3005A08D9005908D4002E308A11BA
:1002A8001A228A1183120313D201D20A4030D700CE
:1002B8005708D3005A08D8005808D40028308A11A3
:1002C8001A2208000C180C108C1CA9298C1079080B
:1002D80003197729750883160313920083120313F1
:1002E8008701F90184297608831603139200780898
:1002F8001F398312031387000130F0007008F900DA
:100308007708031993290230F0007008F6070230C5
:10031800F502FC307602031CA929F701A92902304D
:10032800F6020230F0007008F5070630760203186E
:10033800A9290130F0007008F7002408F0007008BF
:10034800F8000130F0007008A7007408FF00730877
:100358008A0072088400710E8300FE0E7E0E09006A
:10036800083083120313D7005708D2002030D80072
:100378005808D3004C30D9005908D4004F308A119E
:1003880057228A11043083120313D7005708D2006A
:100398001030D8005808D3004930D9005908D40083
:1003A8004C308A1157228A11023083120313D70066
:1003B8005708D2000830D8005808D3004630D90072
:1003C8005908D40049308A1157228A11831203131D
:1003D800D201D20AD301D40146308A1157224F30B4
:1003E800080083120313D6000830D3005308D7003F
:1003F800D8015608D30007300310D30CFF3E031D65
:10040800002A5808D40054075304D5005508D800CA
:100418000310D60D52085802031C142A5208D80299
:100428000130D702031DFD29580808008312031361
:10043800D6005208D500560884005508831380005A
:10044800560A840080015308D5005608023E8400ED
:10045800550880005608043E840080015408D500E1
:100468005608053E840055088000080083120313CF
:10047800D3005308023E840083130008D200530AB5
:100488008400520880005308033E84008001800ADB
:100498005308053E84000008D2005308043E840037
:1004A80052088000080083120313D6005208D500B2
:1004B800560884005508831380005308D500560A4F
:1004C8008400550880005408D5005608023E840070
:1004D8005508800008000330831203139204873004
:1004E8009205910175088316031392008312031372
:1004F8008C108B170B17831603138C14831203139A
:10050800121508007030831603138F048312031723
:100518009E019F01E030831603138700FF3085009A
:10052800373095008113F0308312031397050800C4
:1005380083120313D500D401551CA62A5208D300F0
:100548005308D4070310D20D0310D50CD508031D8A
:10055800A02A540808003030831203139004901026
:100568008F018E010C108B170B17831603130C14B5
:10057800831203131014080064008001840A04061F
:10058800031900340406C12AFF340234013401344B
:02400E00F4F3C9
:00000001FF
