:08000000803102288731FC2F3A
:100EDC003C3021009904C3308E00CF308C002300AD
:100EEC008C018E010800F30122008E150E111030BA
:100EFC00F1009430F000F00B812FF10B812F0000EA
:100F0C0020000E080139F0000230F035890B8B2FD0
:100F1C000E0C0139F1000230F135FF3E031D922F0A
:100F2C0071357004F2007208F30022008E110E1558
:100F3C001030F1009430F000F00BA22FF10BA22F27
:100F4C00000020000E080139F0000E0C01390907D1
:100F5C007004F1007108F30422000E1173080800EC
:100F6C00F60187316E2787314E30F500EB30F400F7
:100F7C00F40BBE2FF50BBE2F873179278731F40088
:100F8C007408F60076080139F400F40E22000E08FD
:100F9C007406EF3974068E0076360139F400F40EBF
:100FAC000C087406EF3974068C007608F4000230D5
:100FBC00F436890BDE2F74080139F500F50EF50DAA
:100FCC000E087506DF3975068E007608F4000330BE
:100FDC00F436890BEE2F74080139F500F50EF50D7A
:100FEC000C087506DF3975068C00BA2F7E102000B0
:040FFC008731B62F54
:020000040001F9
:04000E00E4EFCFFF4D
:00000001FF
