:040000008A11FD2F35
:100F6A007030831603138F04061308008A11B527FD
:100F7A008A11F101F2017208803AFF0080307F0283
:100F8A00031DC92F0A3071020318BE2FF301F401A1
:100F9A007408803AFF0080307F02031DD62F0A3082
:100FAA0073020318F62F73080139F000F00EF00DE2
:100FBA00F00D8312031306087006BF397006860007
:100FCA000130F3070318F40A0030F4077408803A72
:100FDA00FF0080307F02031DF42F0A307302031CC6
:100FEA00D82F0130F1070318F20A0030F207C02F98
:060FFA0083018A11BB2FE8
:02400E00F5F3C8
:00000001FF
