:08000000803102288731FC2F3A
:100F0000F10123000E1321000E133C309904F2016D
:100F1000F3017308803AF00081307002031D922FB4
:100F2000F43072020318BF2FF401F5017508803AFE
:100F3000F00081307002031D9F2FA430740203184B
:100F4000B02F0130F4070030F53D7508803AF0000D
:100F500081307002031DAE2FA4307402031CA12F38
:100F60000130F2070030F33D7308803AF000813021
:100F70007002031DBD2FF4307202031C942F200059
:100F80000E17F201F3017308803AF000813070020D
:100F9000031DCC2FF43072020318F92FF401F50170
:100FA0007508803AF00081307002031DD92FA430FB
:100FB00074020318EA2F0130F4070030F53D75087C
:100FC000803AF00081307002031DE82FA4307402D3
:100FD000031CDB2F0130F2070030F33D7308803A29
:100FE000F00081307002031DF72FF4307202031CF1
:100FF000CE2F20000E13872F7E1020008731802FE8
:020000040001F9
:04000E00E4E7CFFF55
:00000001FF
