:08000000803102288731FD2F39
:100F2A00210099131908873970389900FC309905FE
:100F3A0023000E1022000E1021000E1023008E1026
:100F4A0022008E1021008E1022000E1221000E1295
:100F5A0022008E1221008E1623000E1122000E117D
:100F6A0021000E1123008E1122008E1121008E11F4
:100F7A000800F20187319527873122008E118E10E1
:100F8A0022000E110E100E120630F1001330F0007E
:100F9A00AE30890BCE2FF00BCE2FF10BCE2F2200C5
:100FAA000E160630F1001330F000AE30890BDB2F3D
:100FBA00F00BDB2FF10BDB2F22000E140E12063082
:100FCA00F1001330F000AE30890BE92FF00BE92F56
:100FDA00F10BE92F22000E160630F1001330F00053
:100FEA00AE30890BF62FF00BF62FF10BF62FC52F2B
:060FFA0020008731BE2F2C
:020000040001F9
:04000E00E4CFFFFE3E
:00000001FF
