:040000008A11112828
:10000800FE00030EF4000408F5000A08F600831247
:1000180003137F08F7008A113D2A8A111328F80173
:1000280083133C30840056308A11AE228A113C304A
:10003800FD000130FE00F030FF00203084008A11FE
:10004800782283018A1199298312031345086707C7
:10005800D8005808DB005B0884008A1100218A1147
:100068008A110C228A1183120313D8005808DC0065
:10007800DD01DE01DA016608DE01DE076508DD0163
:10008800DD07DF0107305F020318C928DE1B672878
:100098005B0884008A1100218A110038031D632837
:1000A800DF08031D5928C701C70A5F03FF3A063E48
:1000B8003B07D8005808840083138001C1285E08D4
:1000C8005D04031D71285F03FF3A063E3B07D80015
:1000D8005808840083138001BB285C0884008A11B7
:1000E80000218A11D800D9015E085906031D7E280F
:1000F8005D085806031DAA285D085C0784008A115C
:1001080000218A11D8005F03FF3A063E3B07D90059
:1001180059088400580883138000DD01DE0101308E
:10012800D8005808DB075B0884008A1100218A116F
:100138008A110C228A1183120313D8005808DC0094
:10014800DF08031DC128DA01DA0AC1285D085C0747
:1001580084008A1100218A11D8005F03FF3A063E05
:100168003B07D900590884005808831380000130E0
:10017800DD070318DE0A0030DE070130D800580812
:10018800DF0707305F02031C4A285A080319D728DB
:10019800DA010130C5070318C60A0030C607FF3068
:0C01A800E500FF30E6008A1194220800F8
:1002000001308A000408840A8207003405341F3450
:100210000234043402341F3405341F3408340434E7
:1002200008341F3404340E34113415340C340434BF
:100230000C3411340F34013404341F3404340A34C0
:10024000113404341F34023404341F3404340E34A3
:1002500011341E34103403341E3405341E34033478
:100260001F3415340A3403340E341134113403347A
:100270001F3411340E3403341F3415341134033455
:100280001F340534013403341F3404341F34033461
:1002900011341F34113403341F3410341034033438
:1002A0000E3411340E3403341F3405340234033455
:1002B0001F3405341A340334173415341D34033411
:1002C00001341F34013403341F3410341F34033419
:1002D0000F3410340F3403341B3404341B34033410
:1002E00003341C3403340334193415341334013407
:1002F000173401341034013400344D344F344D344C
:100300002034493453342034543448344534203470
:100310004234453453345434453453345434213402
:100320002134213421342134213421342134213425
:10033000003483120313E301E4018A1163228A115A
:1003400083120313BC01BD010830E2006208BE0045
:100350001130E2006208BF001430E2006208C00001
:100360001130E2006208C1000830E2006208C200F9
:10037000C301C40178308A1184228A118A1128228B
:100380008A1183120313E301E4013A3064029830C6
:10039000031963020318BE290130E3070318E40AB6
:1003A0000030E407C52900308A1150228A1101303B
:1003B000F200780ADD290310F20DFF3E031DDB2950
:1003C00072088A11B6228A117808831203133A0739
:1003D000F20072088400831300088A11502208007A
:1003E00026342A342E34323436343A340D343E3402
:1003F000423412341734463401341C344A344E34F7
:100400002134523456345A345E34623407346634FC
:100410006A346E3448344F3483120313D6005608BE
:10042000203A031D152A7630080056082E3A031D7F
:100430001B2A743008005608213A031D212A723005
:1004400008005608BF3E203E8400831300080800C1
:10045000013083120313E5070318E60A0030E607AC
:10046000470803193A2AC701C501C601FB30E50058
:10047000FF30E6008A11282008000B1D432A0B11CB
:100480008A11A3228A11770883120313FF007608CA
:100490008A0075088400740E8300FE0E7E0E09002B
:1004A000F100710907398312031385007109F00007
:1004B00001300310F00DFF3E031D592A0310700D8B
:1004C0006039860008007030831603138F0485019D
:1004D00086018701811281110108F83903388100F2
:1004E0000B118B168B1708007E088A007F0882008C
:1004F00074228A118000840A04087D0603190034DE
:10050000FF0A0319FE0A782A83120313E100610827
:10051000E0006008E700C501C601FA30E500FF30E1
:10052000E6008A1128200800831203133A08D60037
:100530005608D7003B08D6005608BA005708D60020
:100540005608BB0008000130F3007308F8070730B5
:1005500078020318F8018A11D32108006400800191
:10056000840A0406031900340406AF2AF000700957
:08057000831203138700080049
:02400E00F5F3C8
:00000001FF
