:04000000803119280A
:100008007E14803120007F08F0002700931D1428FB
:1000180093110B108031D120803120008A01820198
:1000280070082000FF007E10090080311B287E1018
:10003800200080311F288031B2208031F4015030F7
:10004800F1000030F2008031C1208031F401F40A5F
:100058000730740203184028740880315E2080310C
:10006800D030890B352800000130F3007308F407FD
:1000780007307402031C3028F401F40A07307402B4
:1000880003185A287408803188208031D030890BB1
:100098004B2800000130F3007308F40742280A30A7
:1000A800F1000030F2008031C120803120008C1D29
:1000B8002A285328F1007103031D652822008E1693
:1000C800080002307106031D6C2822000E16080075
:1000D80003307106031D732822008E1508000430B2
:1000E8007106031D7A2822000E15080005307106D6
:1000F800031D812822008E14080006307106031D96
:10010800080022000E140800F1007103031D8F2857
:1001180022008E12080002307106031D9628220064
:100128000E12080003307106031D9D2822008E114F
:10013800080004307106031DA42822000E110800CF
:1001480005307106031DAB2822008E10080006300A
:100158007106031D080022000E10080021008C16ED
:100168008E0123008E018031CE200B108B152700C5
:10017800921593110B178B17080071087204031955
:1001880008002930890BC62800320130F1020030FE
:10019800F23BC12822008E01080022008E010800CF
:020000040001F9
:04000E00A4DF4FDF3D
:00000001FF
