:10000000803102288731F12F8731242F87312E2F1D
:1000100087313B2F8731482F87314D2F87315A2F1A
:040020008731692F8C
:100C4200FE0012001E00FE0B222E0034FC00FB01EF
:100C52007C1C2F2E7908FA007A08FB070310F90D85
:100C62000310FC0CFC08031D292E7B080800210040
:100C720099171908FC390238990019088739383848
:100C820099008E010C118D0122008D010C110800BA
:100C92000034E0340034FF34FF3400348034A034B4
:100CA2002034E034A03400343034BF3400342034F3
:100CB200A03480340034A0348034F034F034003472
:100CC2000034A03400343034B0340034F601F31F61
:100CD200712EF209F309F20A0319F30AF601F60A70
:100CE200F11F782EF009F109F00A0319F10A7108CF
:100CF200700403199F2EF501F50AF11B8A2E0130AB
:100D0200F035F10D890B812E0130F4007408F507DE
:100D12007E2E71087302031D902E70087202031C4E
:100D2200962E7008F2027108F33B0130F136F00C96
:100D3200890B972E0130F502031D8A2E76080319BE
:100D4200A72EF209F309F20A0319F30A7308F10153
:100D5200F1077208F001F0070800F601F11FB82E42
:100D6200F009F109F00A0319F10AF601F60AF31F74
:100D7200C32EF209F309F20A0319F30A0130F4004F
:100D82007408F606F701F801710870040319F22ECF
:100D9200F501F50AF11BD72E0130F035F10D890B63
:100DA200CE2E0130F4007408F507CB2E0130F73552
:100DB200F80D890BD82E71087302031DE22E7008FC
:100DC2007202031CE92E7008F2027108F33B7714D9
:100DD2000130F136F00C890BEA2E0130F502031DC9
:100DE200D72E76080319FA2EF709F809F70A03191C
:100DF200F80A7808F101F1077708F001F007080016
:100E020086313826873120302000BE003E08C600D9
:100E12002030BE003E08C700C401C40AC501C20199
:100E2200C301C001C10122000C15FF308D00013049
:100E32002000BE00420A1E2FBE35890B1D2F3E0820
:100E420022008E007B2F20004608860087010108C1
:100E520022008D0020004608562F200046088600FA
:100E62008701413F22008D0020004608860087014D
:100E7200413F662F2000460886008701423F22003C
:100E82008D002000460886008701423F662FFF3012
:100E920022008D00FF30672F20004708860087015F
:100EA200010822008D002000470886008701010802
:100EB200662F2000470886008701413F22008D00EF
:100EC2002000470886008701413F22008C00922FB4
:100ED2002000470886008701423F22008D00200043
:100EE200470886008701423F22008C002000C20191
:100EF200C301922F20004308BF004208BE00C20A6D
:100F02000319C30A3F08003A0319882F782F3E08B5
:100F12008400073004020318782F80310435043E20
:100F2200820001302000C0070030C13D4108803AF4
:100F3200BE0082303E02031DA02FBD304002031CC2
:100F4200E52F22000C15FF308D0003302000BE007B
:100F52003E08F9004508F200F301F21BF3030A30E0
:100F6200F0000030F1008631AE26873170088631FC
:100F720027268731203E2000BF003F08C6000330ED
:100F8200BE003E08F9004508F200F301F21BF3032C
:100F92000A30F0000030F100863167268731700890
:100FA200863127268731203E2000BF003F08C70038
:100FB200FF30BE003E08C507C51FE32F3B30BE0011
:100FC2003E08C500C001C10120004435BE003E08F4
:100FD200C4004408803A031D142FC401C40A142F0C
:100FE200493084008630850020308600003087003A
:0E0FF2001E30863121267E1020008731012F0F
:020000040001F9
:06000E00FCC7FFFF9FFF8D
:00000001FF
