:08000000803102288731FD2F39
:100AA40070087104031908002930890B572D00328E
:100AB4000130F0020030F13B522DF201F20AF20152
:100AC400F20A0B30720203180800720886311526E8
:100AD40085310130F1007108F207632DF0007003D5
:100AE400031D792D20000C0E890C013908000230F9
:100AF4007006031D812D20000C0E01390800003002
:100B04000800F400F501F50A85315F258531F5010A
:100B1400F50A75087402031C0800750886315B2603
:100B240085310130F3007308F5078B2DF401F501CD
:100B3400701CA02D7208F4077308F53D0130F235DE
:100B4400F30D890BA12D0130F136F00C890BA62D84
:100B540070087104031D9A2D7508F1007408F000E3
:100B64000800F600F801F80AF701F70A85315F2555
:100B74008531F801F80A0B3078020318080076086A
:100B84000319C62D7808C92D7803FF3A0A3EF500EB
:100B94007508F700770886315B2685317408F10003
:100BA4007308F00085315225853177088631152682
:100BB40085310130F5007508F807BD2DF700F801FF
:100BC40085315F258531F801043078020318072E3A
:100BD4007708853183258531FA30F0000030F10043
:100BE40085315225853185315F258531FA30F00014
:100BF4000030F1008531522585310130F600760848
:100C0400F80704307802031CEA2D77088531832520
:100C14008531E830F0000330F1008531522585310B
:100C240085315F250800F0007003031D1C2E22008F
:100C34000E10080002307006031D232E22008E10B1
:100C4400080003307006031D2A2E22000E1108002E
:100C540004307006031D312E22008E110800053069
:100C64007006031D382E22000E120800063070068E
:100C7400031D3F2E22008E12080007307006031D4C
:100C8400462E22000E13080008307006031D4D2E58
:100C940022008E13080009307006031D542E220012
:100CA4008D1308000A307006031D080022000D137E
:100CB4000800F0007003031D622E22000E140800C9
:100CC40002307006031D692E22008E1408000330C2
:100CD4007006031D702E22000E15080004307006E5
:100CE400031D772E22008E15080005307006031DA3
:100CF4007E2E22000E16080006307006031D852E77
:100D040022008E16080007307006031D8C2E220068
:100D14000E17080008307006031D932E22008E174C
:100D2400080009307006031D9A2E22008D17080052
:100D34000A307006031D080022000D170800210068
:100D44008E013F308D0023000C1222008E018D0194
:100D54008C012000AE01AC01AD010130A9000030CE
:100D6400AA00A701A801AB01AF01AF0A0130853188
:100D740070258631003A0319082F20002F08853189
:100D840083258631F430F0000130F100853152259D
:100D940086312000A901AA01003020002A02C830AF
:100DA400031929020318082F0130A9070030AA3DAE
:100DB4000130853170258631003A0319FA2E01304D
:100DC4002000A0002008AF0705302F02031CEC2EE2
:100DD400AF01AF0A2F088531832586312000A90190
:100DE400AA01C830F0000030F10085315225863167
:100DF4000A30F0000030F10085315225863102308E
:100E0400853170258631003A0319CE2E85315F2550
:100E140086310230853170258631003A0319B82EA7
:100E240020002F03FF3A043EA0002008AF006430E6
:100E3400F3000030F40001308531B325863164308D
:100E4400F3000030F40000308531B32586312000F2
:100E5400AB01A701A8013A2F01302000A7070030F9
:100E6400A83D0A30F0000030F1008531522586316A
:100E74000130200028022C30031927020318532FB5
:100E84000130853170258631003A031D502F023020
:100E9400853170258631003A03192E2F2000AB01CD
:100EA400AB0A0A308531832586312000AC01AD01BF
:100EB4007A2F0130AC070030AD3D0130F000003036
:100EC400F100853152258631033020002D02E930AE
:100ED40003192C02031C732FE830AC000330AD005F
:100EE400852F0130853170258631003A031D852F09
:100EF4000230853170258631003A031D852F20008C
:100F04002B0803195B2F85315F25863120002B08C0
:100F14000319902F0A30A0002008DA2F2F08A00010
:100F2400A1012008F0002108F1003230F200003065
:100F3400F3008531982586317008643E2000A200B4
:100F44000030713DA30023082D02031DAB2F22089E
:100F54002C020318AF2FAE01DB2F2F08A000A10134
:100F64002008F0002108F1003230F2000030F300D4
:100F740085319825863170084B3E2000A200003050
:100F8400713DA300A209A309A20A0319A30A2C080C
:100F94002207A4002D08233DA5002F08033E890A3B
:100FA400D52FA536A40C890BD32F2408A600260818
:100FB400AE000A302E02031CE32F0930A0002008E3
:100FC400AE002E03FF3A0A3EA0002008AE00E8302F
:100FD400F0000330F10085315225863120002E08BF
:100FE4008531E025863120002F03FF3A043EA0001E
:0C0FF4002008AF00B82E20008631A12E8E
:020000040001F9
:06000E00FC3FFF3F9F3F95
:00000001FF
