:08000000803102288731E92F4D
:100D8C0021009D140800F10071088631E926080045
:100D9C00FE0012001E00FE0BCF2E0034F1010A30B3
:100DAC007102031808000130F0007008F107D52E0D
:100DBC008730210099058C018D018E0120008C015A
:100DCC008D018E010800F00021009D18F62E700890
:100DDC00860087011B08C03F1C08C13F013008007A
:100DEC000030080021008D1623008D1621001D08EF
:100DFC0083392C389D009E1770309E04FC309E0564
:100E0C000F309F051D1408000134033402340634DE
:100E1C00023405340134033406340434053402340A
:100E2C0004340634033401340534043408344134B6
:100E3C001C3455345D3477348631DE268731863167
:100E4C00F82687312000C901C601C201C301C001C7
:100E5C00C1014A30860000308700383084000030F1
:100E6C0085000830F20016001A00F20B392FC7016A
:100E7C00C801C401C50120004808C501C5074708C1
:100E8C00C401C407C701C801C901043049020318D1
:100E9C00642F8631D42687318631C62687312000CF
:100EAC004935383E8631C92687310130F200720847
:100EBC002000C90704304902031C4F2FC901C90A7D
:100ECC000430490203187E2F4935383E86008701CD
:100EDC00403FF200413FF3007208B8077308B93D78
:100EEC000130F2007208C90704304902031C6A2F52
:100EFC003908F3003808F200F336F20CF336F20C32
:100F0C007208C7007308C80048084502031D902FDB
:100F1C004708440203189E2F4409F2004509F300C8
:100F2C00F20A0319F30A47087207C0004808A92FF0
:100F3C004709F2004809F300F20A0319F30A4408BE
:100F4C007207C0004508733DC100003041021030EB
:100F5C0003194002031CBA2F3230F2007208C6008B
:100F6C00C201C20A0D17BB2F0D1342080319E02F43
:100F7C0046080319DA2F0130C6024308203E8600CA
:100F8C0087010108FF3E323E8600870101082200DE
:100F9C008E000130F20072082000C30712304302A9
:100FAC00031C412FC301412FC2013230F2007208E1
:100FBC00C600412F46080319E62F0130C602412F07
:100FCC0022008E01412FCA01CB01CC01CD01CE01F3
:100FDC00CF01D001D1010A30840087308500203048
:100FEC0086000030870018308631CE267E10200017
:040FFC008731222FE8
:020000040001F9
:04000E00E4C7FFFF45
:00000001FF
