:040000008031102813
:100008007E14803120007F08F40083311C2374089B
:100018002000FF007E10090080311228F9012030ED
:1000280084000030850015308431B5248031A0303B
:1000380084000030850050308431B5248031793017
:100048008400843085003530860000308700143005
:0C0058008431BB247E1020008131BC29C3
:100200000D340A345434753472346E3469346E34B7
:10021000673420344C344534443420343134203471
:100220006F346634663421340D340A3400340D34AE
:100230000A345434753472346E3469346E3467342D
:1002400020344C34453444342034323420346F3438
:100250006634663421340D340A3400340D340A34E3
:100260005434753472346E3469346E3467342034E7
:100270004C34453444342034313420346F346E34BB
:1002800021340D340A3400340D340A3454347534B6
:1002900072346E3469346E34673420344C344534EF
:1002A00044342034323420346F346E3421340D34ED
:1002B0000A3400340D340A345334743472346934DB
:1002C0006E346734203474346F346F3420346C34BB
:1002D0006F346E34673421340D340A3400340D34F5
:1002E0000A3459346F3475342034743479347034AA
:1002F000653464343A342034253473340D340A348C
:1003000000346C34653464342034313420346F3438
:100310006634663400346C346534643420343234EA
:1003200020346F346634663400346C34653464349D
:100330002034313420346F346E3400346C346534FE
:1003400064342034323420346F346E340034283432
:100350006E3475346C346C34293400346C34653448
:1003600064340034313400343234003433340034F3
:10037000343400343E34003484319D2481312200F1
:10038000B401B501B601B701F5295A302000CC00FF
:100390008130CD0082315B228131F5292E30CC00B5
:1003A0008130CD0082315B22813122000D17F52989
:1003B0000030CC008130CD0082315B2281312200BF
:1003C0000D13F5294430CC008130CD0082315B2201
:1003D000813122000D16F5291730CC008130CD0077
:1003E00082315B22813122000D12BA302000CC0014
:1003F0008130CD0082315B22813114302000CB006E
:100400000030CC0020308231BE228131003A031D01
:10041000C52995302000CB008130CC0020308331BD
:100420007323813120004C084B040319CE298130FD
:100430002000CB008130CC00203083317323813108
:1004400020004C084B040319D8299E302000CB0013
:100450008130CC00203083317323813120004C085F
:100460004B040319E2298B302000CB008130CC00F3
:10047000203083317323813120004C084B04031951
:10048000EC2916302000CB008130CC0020308331A5
:100490007323813120004C084B040319F5296F3078
:1004A000CC008130CD002030D9005908CE008231F7
:1004B0005B228131F5294E302000CF004F08D30058
:1004C00020004D08D0004C08CF00CC0A0319CD0AFB
:1004D0004F088400500885000008D1005108D4005E
:1004E000D408031908005408253A03197C2A540833
:1004F0008331D1238231602A2000D201A82A5308F7
:10050000860087010108D5000130D6000130CF00F8
:100510004F08D30756085504031D922AA730D5006B
:100520008130D60055088400560885000008003840
:100530000319602A55088400560885000008833195
:10054000D123823101302000D5070030D63D922AD8
:100550004D08D0004C08CF00CC0A0319CD0A4F0833
:100560008400500885000008D400003A0319BD2A11
:10057000733A03197F2A602A602A08002000D100FC
:10058000D301D401F02A5208083A0319CB2A5208A1
:100590007F3A031DE12A5408803ACD0080304D0295
:1005A000031DD42A01305302031CDB2AFF30200034
:1005B000D307FF30D43DFF302000D307FF30D43DB8
:1005C000EC2A5208CD0053085107CE004E08860091
:1005D000013087004D0881000130D3070030D43D41
:1005E0004B08FF3ECD00FF304C3DCE005408803A12
:1005F000CF004E08803A4F02031D002B4D085302D6
:100600000318112B2000D001D00A84311D2482311F
:100610002000CD004D08D20052080D3A031DC32A18
:10062000D001200053085107CD004D08860001304D
:1006300087008101500808002000111E3D2B210079
:10064000111E3D2B8431AD2483310038031D3B2B1B
:10065000780886008701010823009A000130F30022
:100660007308F8077808F03A031D3D2BA030F3001B
:100670007308F8003D2B210011122000911E080084
:100680002100911E080020009112843164248331DE
:100690000038031D682B23001908F3007508860035
:1006A0008701730881000130F3007308F5077508AE
:1006B000FF3E8600870101088331F82383313530FE
:1006C0007502031C08002130F3007308F5000800D0
:1006D00023001908F30073082000A0000130F30084
:1006E0007308A00708002000D0007E2B0130CD0049
:1006F0004D08D0070130CB070030CC3D4B088400BB
:100700004C088500000884318D248331FF3A013E76
:100710002000CD0050088600013087000108843198
:100720008D24833120004D07CE004E08CF00CF0826
:10073000031DA12B50088600013087008108031D8E
:10074000762B4F08CB00CC01CB1BCC030800A0308C
:100750002000C9004908F800A030C9004908F70086
:100760002130C9004908F6002130C9004908F500C8
:1007700023001E151E129F1544309B009C019D17DF
:1007800021008D138D1623008D122000111291125D
:100790002100111291160B178B1723009E161D16A0
:1007A00008002000CB008431392483310038031D38
:1007B000D32B8431392483310038031DF32B2000DF
:1007C0004B08CA007708860087014A08810001307B
:1007D000CA004A08F707F0307702031CF32BA03059
:1007E000CA004A08F7002100111A08001116080073
:1007F000F20084314F2483310038031DF92B8431FA
:100800004F2483310038031D182C7208F10077083B
:1008100086008701710881000130F1007108F70737
:10082000F0307702031C182CA030F1007108F7009B
:100830002100111A0800111608008431A524843102
:100840000038031D1D2C7608860087010108200052
:10085000C9004908CA000130C9004908F6077608EE
:10086000353A031D372C2130C9004908F6004A08E3
:1008700008007808A03A031D432C7708EF3A031DBF
:10088000432C01300800013077072000C9007808A8
:100890004906031D4D2C013008000030080078087F
:1008A000A03A031D592C7708EF3A031D592C01304B
:1008B000080001307707F00078087006031D622CED
:1008C00001300800003008007608213A031D6E2C24
:1008D0007508343A031D6E2C01300800013075078D
:1008E000F00076087006031D772C013008000030F8
:1008F0000800B2348134B4348134B6348134B8342D
:100900008134AE3481341634813416348134163453
:1009100081349B348134873481342000CA007B3099
:100920004A0203189B2C61304A02031C9B2CDF30C7
:10093000C9004908CA054A0808007830210099040E
:100940000D130D128331A723080076087506031DC9
:10095000AB2C013008000030080078087706031D32
:10096000B32C013008000030080064008001013120
:10097000890BB62C0034FE0012001E00FE0BBC2CAE
:02098000003441
:020000040001F9
:04000E00E4CFFFFF3D
:00000001FF
