:020000040000fa
:080000000002040000000000f2
:020000040000fa
:04000800c803000029
:020000040000fa
:04000c00c803000025
:020000040000fa
:04001000c803000021
:020000040000fa
:04001400c80300001d
:020000040000fa
:04001800c803000019
:020000040000fa
:04001c00c803000015
:020000040000fa
:04002000c803000011
:020000040000fa
:04002400c80300000d
:020000040000fa
:04002800c803000009
:020000040000fa
:04002c00c803000005
:020000040000fa
:04003000c803000001
:020000040000fa
:04003400c8030000fd
:020000040000fa
:04003800c8030000f9
:020000040000fa
:04003c00c8030000f5
:020000040000fa
:04004000c8030000f1
:020000040000fa
:04004400fe020000b8
:020000040000fa
:04004800c8030000e9
:020000040000fa
:04004c00c8030000e5
:020000040000fa
:04005000c8030000e1
:020000040000fa
:04005400dc020000ca
:020000040000fa
:04005800c8020000da
:020000040000fa
:04005c00c8030000d5
:020000040000fa
:04006000c8030000d1
:020000040000fa
:04006400c8030000cd
:020000040000fa
:04006800c8030000c9
:020000040000fa
:04006c00c8030000c5
:020000040000fa
:04007000c8030000c1
:020000040000fa
:04007400c8030000bd
:020000040000fa
:04007800c8030000b9
:020000040000fa
:04007c00c8030000b5
:020000040000fa
:04008000c8030000b1
:020000040000fa
:04008400c8030000ad
:020000040000fa
:04008800c8030000a9
:020000040000fa
:04008c00c8030000a5
:020000040000fa
:04009000c8030000a1
:020000040000fa
:04009400c80300009d
:020000040000fa
:04009800c803000099
:020000040000fa
:04009c00c803000095
:020000040000fa
:0400a000c803000091
:020000040000fa
:0400a400c80300008d
:020000040000fa
:0400a800c803000089
:020000040000fa
:0400ac00c803000085
:020000040000fa
:0400b000c803000081
:020000040000fa
:0400b400c80300007d
:020000040000fa
:0400b800c803000079
:020000040000fa
:0400bc00c803000075
:020000040000fa
:0400c000c803000071
:020000040000fa
:0400c400c80300006d
:020000040000fa
:0400c800c803000069
:020000040000fa
:0400cc00c803000065
:020000040000fa
:0400d000c803000061
:020000040000fa
:0400d400c80300005d
:020000040000fa
:0400d800c803000059
:020000040000fa
:0400dc00c803000055
:020000040000fa
:0400e000c803000051
:020000040000fa
:0400e400c80300004d
:020000040000fa
:0400e800c803000049
:020000040000fa
:0400ec00c803000045
:020000040000fa
:0400f000c803000041
:020000040000fa
:0400f400c80300003d
:020000040000fa
:0400f800c803000039
:020000040000fa
:0400fc00c803000035
:020000040000fa
:04010000c803000030
:020000040000fa
:04010400c80300002c
:020000040000fa
:04010800c803000028
:020000040000fa
:04010c00c803000024
:020000040000fa
:04011000c803000020
:020000040000fa
:04011400c80300001c
:020000040000fa
:04011800c803000018
:020000040000fa
:04011c00c803000014
:020000040000fa
:04012000c803000010
:020000040000fa
:04012400c80300000c
:020000040000fa
:04012800c803000008
:020000040000fa
:04012c00c803000004
:020000040000fa
:04013000c803000000
:020000040000fa
:04013400c8030000fc
:020000040000fa
:04013800c8030000f8
:020000040000fa
:04013c00c8030000f4
:020000040000fa
:04014000c8030000f0
:020000040000fa
:04014400c8030000ec
:020000040000fa
:04014800c8030000e8
:020000040000fa
:04014c00c8030000e4
:020000040000fa
:04015000c8030000e0
:020000040000fa
:04015400c8030000dc
:020000040000fa
:04015800c8030000d8
:020000040000fa
:04015c00c8030000d4
:020000040000fa
:04016000c8030000d0
:020000040000fa
:04016400c8030000cc
:020000040000fa
:04016800c8030000c8
:020000040000fa
:04020800c803000027
:020000040000fa
:04020c00c803000023
:020000040000fa
:04021000c80300001f
:020000040000fa
:04021400c80300001b
:020000040000fa
:04021800c803000017
:020000040000fa
:04021c00c803000013
:020000040000fa
:04022000c80300000f
:020000040000fa
:04022400c80300000b
:020000040000fa
:04022800c803000007
:020000040000fa
:04022c00c803000003
:020000040000fa
:04023000c8030000ff
:020000040000fa
:04023400c8030000fb
:020000040000fa
:04023800c8030000f7
:020000040000fa
:04023c00c8030000f3
:020000040000fa
:04024000c8030000ef
:020000040000fa
:04024400c8030000eb
:020000040000fa
:04024800c8030000e7
:020000040000fa
:04024c00c8030000e3
:020000040000fa
:04025000c8030000df
:020000040000fa
:04025400c8030000db
:020000040000fa
:04025800c8030000d7
:020000040000fa
:04025c00c8030000d3
:020000040000fa
:04026000c8030000cf
:020000040000fa
:04026400c8030000cb
:020000040000fa
:04026800c8030000c7
:020000040000fa
:04026c00c8030000c3
:020000040000fa
:04027000c8030000bf
:020000040000fa
:04027400c8030000bb
:020000040000fa
:04027800c8030000b7
:020000040000fa
:04027c00c8030000b3
:020000040000fa
:04028000c8030000af
:020000040000fa
:04028400c8030000ab
:020000040000fa
:04028800c8030000a7
:020000040000fa
:04028c00c8030000a3
:020000040000fa
:04029000c80300009f
:020000040000fa
:04029400c80300009b
:020000040000fa
:04029800c803000097
:020000040000fa
:04029c00c803000093
:020000040000fa
:0402a000c80300008f
:020000040000fa
:0402a400c80300008b
:020000040000fa
:0402a800c803000087
:020000040000fa
:0402ac00c803000083
:020000040000fa
:0402b000c80300007f
:020000040000fa
:0402b400c80300007b
:020000040000fa
:0402b800c803000077
:020000040000fa
:0402bc00c803000073
:020000040000fa
:0402c000c80300006f
:020000040000fa
:0402c400c80300006b
:020000040000fa
:0402c800c803000067
:020000040000fa
:0402cc00c803000063
:020000040000fa
:0402d000c80300005f
:020000040000fa
:0402d400c80300005b
:020000040000fa
:0402d800c803000057
:020000040000fa
:0402dc00c803000053
:020000040000fa
:0402e000c80300004f
:020000040000fa
:0402e400c80300004b
:020000040000fa
:0402e800c803000047
:020000040000fa
:0402ec00c803000043
:020000040000fa
:0402f000c80300003f
:020000040000fa
:0402f400c80300003b
:020000040000fa
:0402f800c803000037
:020000040000fa
:0402fc00c803000033
:020000040000fa
:04030000c80300002e
:020000040000fa
:04030400c80300002a
:020000040000fa
:04030800c803000026
:020000040000fa
:04030c00c803000022
:020000040000fa
:04031000c80300001e
:020000040000fa
:04031400c80300001a
:020000040000fa
:04031800c803000016
:020000040000fa
:04031c00c803000012
:020000040000fa
:04032000c80300000e
:020000040000fa
:04032400c80300000a
:020000040000fa
:04032800c803000006
:020000040000fa
:04032c00c803000002
:020000040000fa
:04033000c8030000fe
:020000040000fa
:04033400c8030000fa
:020000040000fa
:04033800c8030000f6
:020000040000fa
:04033c00c8030000f2
:020000040000fa
:04034000c8030000ee
:020000040000fa
:04034400c8030000ea
:020000040000fa
:04034800c8030000e6
:020000040000fa
:04034c00c8030000e2
:020000040000fa
:04035000c8030000de
:020000040000fa
:04035400c8030000da
:020000040000fa
:04035800c8030000d6
:020000040000fa
:04035c00c8030000d2
:020000040000fa
:04036000c8030000ce
:020000040000fa
:04036400c8030000ca
:020000040000fa
:04036800c8030000c6
:020000040000fa
:100400004f8620000e9f20000e0188000000000093
:10041000000020000000e000020032000001200087
:100420002002880014000700db0007000000e00045
:1004300003003a00204220000100200002003700a3
:100440000000200001002000810f70000100320038
:1004500014000700000020000000e000020032004d
:100460000000020000000000ce03020000000000b7
:100470000040da000000fe004440a9000000200017
:100480000000e0000300320000002000a00188000e
:100490004440a800000006008a1f78008b1f7800e7
:1004a0000000060091018800800478000000eb0045
:1004b0001a003700e284440032a0b4009905ba0063
:1004c000e284440032a0b4009906ba00e2844400f9
:1004d00032a0b4000006eb00476fde00fd07b2005b
:1004e000636ce10003003a00ebff07000000eb0043
:1004f0000a003700606ce10004003a00005deb0088
:100500008b05e900fdff3e00040037006168e10053
:10051000010032000086eb000b00070019c7ba008b
:100520001905ba000e04e00003003a000a00e000da
:10053000e0ff3a0000000600fe07b2009e018800be
:100540008a047800f5ff3700395dba008b05e900b1
:100550000c003200295dba008b05e900080032006a
:100560000c00e00003003a00e284440032a0b40032
:10057000f5ff370019ddba008b05e900faff3a00f4
:100580008904e800e184440032a0b40000000600c1
:100590003400f800881f780008002000a8018800b7
:1005a0004f0478000000fa008580a9000080fa005e
:1005b0003400f90000400600809fbe003400f800bf
:1005c00000002000a00188000000fa008560a9005a
:1005d0001111800000202000008060000000e00079
:1005e00002003a0030118000201188000080fa00db
:1005f0003400f9004f00be0000400600809fbe009e
:10060000821f78003400f80000002000a00188005c
:100610000000fa0084e0a90062c8bf00e64f500065
:1006200008003c00f00f20004008880062c8bf00ae
:10063000e34f50004c003a00cd02a900cd22a900a2
:100640004900370062c8bf00e64f50004600340042
:100650000040800040088800f042800001582200dd
:100660008100680001f0a7008100ea008100e90034
:10067000cf08de00814078000000e800f0428800ea
:100680000104e0000200320010002000c042880097
:10069000c0428000e10f500037003a00cd02a800b0
:1006a0006268ef00e04280000000e00003003a00d2
:1006b000cd22a800c482a8001b003700e0428000c1
:1006c000e90f500002003a00c482a900160037006a
:1006d000d14280002080200000804000104078003f
:1006e0008000fb00e04280000000e9000088de009e
:1006f0006100600000f0a7000000ea000000e900cf
:100700004f00de00004078000080fb0061006000c8
:100710004400dd0022168000f1fe2f008100610000
:100720000100700020168800e04280000000e80010
:10073000e0428800e0428000e90f50000a003400e7
:100740005c28ef00d04280000000e800d042880022
:10075000d1428000b0428000808f500002003a00f9
:100760005828ef005a28ef0062c8bf000040e80098
:1007700062e8b70001003700000000000080fa00c6
:100780003400f9004f0178004f00be000040060021
:0c0790000040da000000fe000000050040
:020000040000fa
:10079c000000fa0001000700ffff37000000fa001c
:1007ac00213a8000f08f2f00808060000030200004
:1007bc0001007000203a8800f00f200040088800eb
:1007cc0084e0a90094e0a9000a41a80000fa2f00d7
:1007dc00001688000001280040168800e3c4a90018
:1007ec00e3e4a9008580a9008560a9009580a80094
:1007fc009560a80001118000f0cf2f0000806000f0
:10080c00001188002062a8000111800090ff2f00c9
:10081c0000806000001188002002a90023c2a900fa
:10082c00c00020004011880021e2a8002342a8004b
:08083c000080fa000000060034
:020000040000fa
:10084400000800005a000000020000005300650088
:1008540050756d00707c3000303030007c303000da
:1008640030317c00303030003031300031317c00a8
:1008740030303500357c3000303030007c37380083
:1008840030397c00303030003030300030303000cf
:1008940030303000347c3700383830007c30300061
:1008a4003030300030303000307c310032333400ae
:1008b4007c35350035357c007c0d0a000000520083
:1008c400000100005a0800000a00000000000000b7
:0408d4000000000020
:020000040000fa
:0200000401f009
:04000000ffff0000fe
:020000040000fa
:0200000401f009
:04000800ffff0000f6
:020000040000fa
:0200000401f009
:04000c00dfff000012
:020000040000fa
:0200000401f009
:04001000ffff0000ee
:020000040000fa
:0200000401f009
:040014005fff00008a
:020000040000fa
:0200000401f009
:04001800f7ff0000ee
:020000040000fa
:0200000401f009
:04001c00feff0000e3
:00000001FF
